{
  "contractName": "AufGame",
  "abi": [
    {
      "inputs": [
        {
          "internalType": "contract AufToken",
          "name": "_aufToken",
          "type": "address"
        },
        {
          "internalType": "contract AufNFT",
          "name": "_aufNFT",
          "type": "address"
        }
      ],
      "stateMutability": "nonpayable",
      "type": "constructor"
    },
    {
      "anonymous": false,
      "inputs": [
        {
          "indexed": false,
          "internalType": "enum AufGame.Roles",
          "name": "a",
          "type": "uint8"
        }
      ],
      "name": "CurrentStage",
      "type": "event"
    },
    {
      "anonymous": false,
      "inputs": [
        {
          "indexed": false,
          "internalType": "string",
          "name": "_text",
          "type": "string"
        }
      ],
      "name": "Log",
      "type": "event"
    },
    {
      "anonymous": false,
      "inputs": [
        {
          "indexed": false,
          "internalType": "enum AufGame.Roles",
          "name": "a",
          "type": "uint8"
        },
        {
          "indexed": false,
          "internalType": "string",
          "name": "b",
          "type": "string"
        }
      ],
      "name": "Winside",
      "type": "event"
    },
    {
      "inputs": [],
      "name": "aufNFT",
      "outputs": [
        {
          "internalType": "contract AufNFT",
          "name": "",
          "type": "address"
        }
      ],
      "stateMutability": "view",
      "type": "function",
      "constant": true
    },
    {
      "inputs": [],
      "name": "aufToken",
      "outputs": [
        {
          "internalType": "contract AufToken",
          "name": "",
          "type": "address"
        }
      ],
      "stateMutability": "view",
      "type": "function",
      "constant": true
    },
    {
      "inputs": [],
      "name": "citizen_bets",
      "outputs": [
        {
          "internalType": "uint256",
          "name": "",
          "type": "uint256"
        }
      ],
      "stateMutability": "view",
      "type": "function",
      "constant": true
    },
    {
      "inputs": [],
      "name": "impostor_bets",
      "outputs": [
        {
          "internalType": "uint256",
          "name": "",
          "type": "uint256"
        }
      ],
      "stateMutability": "view",
      "type": "function",
      "constant": true
    },
    {
      "inputs": [
        {
          "internalType": "string",
          "name": "",
          "type": "string"
        }
      ],
      "name": "lookup",
      "outputs": [
        {
          "internalType": "enum AufGame.Roles",
          "name": "",
          "type": "uint8"
        }
      ],
      "stateMutability": "view",
      "type": "function",
      "constant": true
    },
    {
      "inputs": [],
      "name": "name",
      "outputs": [
        {
          "internalType": "string",
          "name": "",
          "type": "string"
        }
      ],
      "stateMutability": "view",
      "type": "function",
      "constant": true
    },
    {
      "inputs": [],
      "name": "owner",
      "outputs": [
        {
          "internalType": "address",
          "name": "",
          "type": "address"
        }
      ],
      "stateMutability": "view",
      "type": "function",
      "constant": true
    },
    {
      "inputs": [
        {
          "internalType": "address",
          "name": "",
          "type": "address"
        }
      ],
      "name": "player_index",
      "outputs": [
        {
          "internalType": "uint256",
          "name": "",
          "type": "uint256"
        }
      ],
      "stateMutability": "view",
      "type": "function",
      "constant": true
    },
    {
      "inputs": [
        {
          "internalType": "uint256",
          "name": "nftid",
          "type": "uint256"
        }
      ],
      "name": "ConnectGame",
      "outputs": [],
      "stateMutability": "nonpayable",
      "type": "function"
    },
    {
      "inputs": [],
      "name": "gameStart",
      "outputs": [],
      "stateMutability": "nonpayable",
      "type": "function"
    },
    {
      "inputs": [
        {
          "internalType": "uint256",
          "name": "stake",
          "type": "uint256"
        }
      ],
      "name": "Bet",
      "outputs": [],
      "stateMutability": "nonpayable",
      "type": "function"
    },
    {
      "inputs": [
        {
          "internalType": "uint256",
          "name": "ind",
          "type": "uint256"
        }
      ],
      "name": "ImpostorKill",
      "outputs": [],
      "stateMutability": "nonpayable",
      "type": "function"
    },
    {
      "inputs": [],
      "name": "startVoting",
      "outputs": [],
      "stateMutability": "nonpayable",
      "type": "function"
    },
    {
      "inputs": [],
      "name": "voteCount",
      "outputs": [
        {
          "internalType": "uint256",
          "name": "",
          "type": "uint256"
        }
      ],
      "stateMutability": "view",
      "type": "function",
      "constant": true
    },
    {
      "inputs": [
        {
          "internalType": "uint256",
          "name": "ind",
          "type": "uint256"
        }
      ],
      "name": "Vote",
      "outputs": [],
      "stateMutability": "nonpayable",
      "type": "function"
    },
    {
      "inputs": [],
      "name": "ImpostorWin",
      "outputs": [],
      "stateMutability": "nonpayable",
      "type": "function"
    },
    {
      "inputs": [],
      "name": "CrewmateWin",
      "outputs": [],
      "stateMutability": "nonpayable",
      "type": "function"
    },
    {
      "inputs": [
        {
          "internalType": "uint256",
          "name": "ind",
          "type": "uint256"
        }
      ],
      "name": "CheckAlive",
      "outputs": [
        {
          "internalType": "uint256",
          "name": "",
          "type": "uint256"
        }
      ],
      "stateMutability": "view",
      "type": "function",
      "constant": true
    },
    {
      "inputs": [],
      "name": "CheckAlive",
      "outputs": [
        {
          "internalType": "uint256",
          "name": "",
          "type": "uint256"
        }
      ],
      "stateMutability": "view",
      "type": "function",
      "constant": true
    },
    {
      "inputs": [
        {
          "internalType": "string",
          "name": "s",
          "type": "string"
        }
      ],
      "name": "RoleLookup",
      "outputs": [
        {
          "internalType": "uint256[]",
          "name": "",
          "type": "uint256[]"
        }
      ],
      "stateMutability": "view",
      "type": "function",
      "constant": true
    },
    {
      "inputs": [],
      "name": "Reset",
      "outputs": [],
      "stateMutability": "nonpayable",
      "type": "function"
    }
  ],
  "bytecode": "0x60806040526040518060400160405280601481526020017f416d6f6e6775732e66696e616e63652067616d650000000000000000000000008152506000908051906020019062000051929190620001ec565b506001600f60006101000a81548160ff021916908360058111156200007257fe5b02179055506003601c556007601d55600b601e556000601f5560006020556000602155683635c9adc5dea0000060225560006023556000602455600d603960006101000a81548173ffffffffffffffffffffffffffffffffffffffff021916908373ffffffffffffffffffffffffffffffffffffffff160217905550348015620000fb57600080fd5b5060405162002c1438038062002c148339818101604052810190620001219190620002c0565b81600260006101000a81548173ffffffffffffffffffffffffffffffffffffffff021916908373ffffffffffffffffffffffffffffffffffffffff16021790555080600360006101000a81548173ffffffffffffffffffffffffffffffffffffffff021916908373ffffffffffffffffffffffffffffffffffffffff16021790555033600160006101000a81548173ffffffffffffffffffffffffffffffffffffffff021916908373ffffffffffffffffffffffffffffffffffffffff1602179055505050620003a5565b828054600181600116156101000203166002900490600052602060002090601f016020900481019282601f106200022f57805160ff191683800117855562000260565b8280016001018555821562000260579182015b828111156200025f57825182559160200191906001019062000242565b5b5090506200026f919062000273565b5090565b5b808211156200028e57600081600090555060010162000274565b5090565b600081519050620002a38162000371565b92915050565b600081519050620002ba816200038b565b92915050565b60008060408385031215620002d457600080fd5b6000620002e485828601620002a9565b9250506020620002f78582860162000292565b9150509250929050565b60006200030e8262000351565b9050919050565b6000620003228262000351565b9050919050565b6000620003368262000301565b9050919050565b60006200034a8262000315565b9050919050565b600073ffffffffffffffffffffffffffffffffffffffff82169050919050565b6200037c8162000329565b81146200038857600080fd5b50565b62000396816200033d565b8114620003a257600080fd5b50565b61285f80620003b56000396000f3fe608060405234801561001057600080fd5b50600436106101375760003560e01c806388fc7e3d116100b8578063c63840711161007c578063c6384071146102cc578063c745df7a146102ea578063dcd6a5cd146102f4578063e07e26ed14610310578063eca28e6f14610340578063f67187ac1461035e57610137565b806388fc7e3d146102385780638da5cb5b1461025657806392fcecdb146102745780639929ba3714610292578063ba8cded7146102b057610137565b80633a58103e116100ff5780633a58103e146101a657806347308790146101c45780634cdd0863146101ce5780636423db34146101fe57806380f9a7441461020857610137565b806303b5ed1b1461013c57806306bdf9911461015857806306fdde03146101745780631ec6b60a146101925780633218b99d1461019c575b600080fd5b61015660048036038101906101519190611ec8565b61038e565b005b610172600480360381019061016d9190611ec8565b610648565b005b61017c610882565b60405161018991906124c3565b60405180910390f35b61019a610920565b005b6101a4610a82565b005b6101ae610e83565b6040516101bb919061245f565b60405180910390f35b6101cc610ea9565b005b6101e860048036038101906101e39190611ec8565b610ff9565b6040516101f591906125c5565b60405180910390f35b6102066110a3565b005b610222600480360381019061021d9190611e42565b61119e565b60405161022f9190612422565b60405180910390f35b610240611305565b60405161024d9190612444565b60405180910390f35b61025e61132b565b60405161026b919061238c565b60405180910390f35b61027c611351565b60405161028991906125c5565b60405180910390f35b61029a611357565b6040516102a791906125c5565b60405180910390f35b6102ca60048036038101906102c59190611ec8565b61135d565b005b6102d4611697565b6040516102e191906125c5565b60405180910390f35b6102f26116a5565b005b61030e60048036038101906103099190611ec8565b6117f1565b005b61032a60048036038101906103259190611dc7565b611c08565b60405161033791906125c5565b60405180910390f35b610348611c20565b60405161035591906125c5565b60405180910390f35b61037860048036038101906103739190611e87565b611c8a565b604051610385919061247a565b60405180910390f35b600a602054106103d3576040517f08c379a00000000000000000000000000000000000000000000000000000000081526004016103ca906125a5565b60405180910390fd5b3373ffffffffffffffffffffffffffffffffffffffff16600360009054906101000a900473ffffffffffffffffffffffffffffffffffffffff1673ffffffffffffffffffffffffffffffffffffffff16636352211e836040518263ffffffff1660e01b815260040161044591906125c5565b60206040518083038186803b15801561045d57600080fd5b505afa158015610471573d6000803e3d6000fd5b505050506040513d601f19601f820116820180604052508101906104959190611df0565b73ffffffffffffffffffffffffffffffffffffffff16146104eb576040517f08c379a00000000000000000000000000000000000000000000000000000000081526004016104e290612545565b60405180910390fd5b600360009054906101000a900473ffffffffffffffffffffffffffffffffffffffff1673ffffffffffffffffffffffffffffffffffffffff166323b872dd33603960009054906101000a900473ffffffffffffffffffffffffffffffffffffffff16846040518463ffffffff1660e01b815260040161056c939291906123c2565b600060405180830381600087803b15801561058657600080fd5b505af115801561059a573d6000803e3d6000fd5b50505050336010602054600a81106105ae57fe5b0160006101000a81548173ffffffffffffffffffffffffffffffffffffffff021916908373ffffffffffffffffffffffffffffffffffffffff160217905550602054601a60003373ffffffffffffffffffffffffffffffffffffffff1673ffffffffffffffffffffffffffffffffffffffff1681526020019081526020016000208190555060206000815480929190600101919050555050565b60046000805b600a811015610780573373ffffffffffffffffffffffffffffffffffffffff16600482600a811061067b57fe5b0160000160029054906101000a900473ffffffffffffffffffffffffffffffffffffffff1673ffffffffffffffffffffffffffffffffffffffff161415610773578260058111156106c857fe5b600482600a81106106d557fe5b0160000160019054906101000a900460ff1660058111156106f257fe5b14801561073357506000600181111561070757fe5b600482600a811061071457fe5b0160000160009054906101000a900460ff16600181111561073157fe5b145b801561076457506000600581111561074757fe5b600f60009054906101000a900460ff16600581111561076257fe5b145b1561076e57600191505b610780565b808060010191505061064e565b508061078b57600080fd5b6001600581111561079857fe5b600f60009054906101000a900460ff1660058111156107b357fe5b14156107be57600080fd5b82600a811080156107d0575060038110155b80156108105750600060018111156107e457fe5b600482600a81106107f157fe5b0160000160009054906101000a900460ff16600181111561080e57fe5b145b61081957600080fd5b83601e8190555060016004601e54600a811061083157fe5b0160000160006101000a81548160ff0219169083600181111561085057fe5b0217905550601d60008154809291906001900391905055506000601d54141561087c5761087b6116a5565b5b50505050565b60008054600181600116156101000203166002900480601f0160208091040260200160405190810160405280929190818152602001828054600181600116156101000203166002900480156109185780601f106108ed57610100808354040283529160200191610918565b820191906000526020600020905b8154815290600101906020018083116108fb57829003601f168201915b505050505081565b6000805b600a8110156109e6573373ffffffffffffffffffffffffffffffffffffffff16600482600a811061095157fe5b0160000160029054906101000a900473ffffffffffffffffffffffffffffffffffffffff1673ffffffffffffffffffffffffffffffffffffffff1614156109d9576000600181111561099f57fe5b600482600a81106109ac57fe5b0160000160009054906101000a900460ff1660018111156109c957fe5b14156109d457600191505b6109e6565b8080600101915050610924565b50806109f157600080fd5b600160058111156109fe57fe5b600f60009054906101000a900460ff166005811115610a1957fe5b1415610a2457600080fd5b6002600f60006101000a81548160ff02191690836005811115610a4357fe5b02179055507e4e4ecf5ad01a969ce2da16c5d7a7dfa7e56cfb368d486d400a8825f647fa306002604051610a77919061247a565b60405180910390a150565b600a60205414610ac7576040517f08c379a0000000000000000000000000000000000000000000000000000000008152600401610abe90612565565b60405180910390fd5b7fcf34ef537ac33ee1ac626ca1587a0a7e8e51561e5514f8cb36afa1c5102b3bab604051610af490612525565b60405180910390a160005b600a811015610bc4576000600482600a8110610b1757fe5b0160000160006101000a81548160ff02191690836001811115610b3657fe5b0217905550601081600a8110610b4857fe5b0160009054906101000a900473ffffffffffffffffffffffffffffffffffffffff16600482600a8110610b7757fe5b0160000160026101000a81548173ffffffffffffffffffffffffffffffffffffffff021916908373ffffffffffffffffffffffffffffffffffffffff160217905550600181019050610aff565b506004806000600a8110610bd457fe5b0160000160016101000a81548160ff02191690836005811115610bf357fe5b02179055506004806001600a8110610c0757fe5b0160000160016101000a81548160ff02191690836005811115610c2657fe5b02179055506004806002600a8110610c3a57fe5b0160000160016101000a81548160ff02191690836005811115610c5957fe5b0217905550600560046003600a8110610c6e57fe5b0160000160016101000a81548160ff02191690836005811115610c8d57fe5b02179055506005600480600a8110610ca157fe5b0160000160016101000a81548160ff02191690836005811115610cc057fe5b0217905550600560046005600a8110610cd557fe5b0160000160016101000a81548160ff02191690836005811115610cf457fe5b0217905550600560046006600a8110610d0957fe5b0160000160016101000a81548160ff02191690836005811115610d2857fe5b0217905550600560046007600a8110610d3d57fe5b0160000160016101000a81548160ff02191690836005811115610d5c57fe5b0217905550600560046008600a8110610d7157fe5b0160000160016101000a81548160ff02191690836005811115610d9057fe5b0217905550600560046009600a8110610da557fe5b0160000160016101000a81548160ff02191690836005811115610dc457fe5b02179055506004601b604051610dd990612377565b908152602001604051809103902060006101000a81548160ff02191690836005811115610e0257fe5b02179055506005601b604051610e1790612362565b908152602001604051809103902060006101000a81548160ff02191690836005811115610e4057fe5b02179055506000600f60006101000a81548160ff02191690836005811115610e6457fe5b0217905550600060218190555060006023819055506000602481905550565b600260009054906101000a900473ffffffffffffffffffffffffffffffffffffffff1681565b7fbb3a0b55fe833703be63394fa5e5ed2aa1fcb33046f0732c45505aebeaf594626005604051610ed99190612495565b60405180910390a16000600760215481610eef57fe5b0490506000600390505b600a811015610fed57600260009054906101000a900473ffffffffffffffffffffffffffffffffffffffff1673ffffffffffffffffffffffffffffffffffffffff1663a9059cbb601083600a8110610f4d57fe5b0160009054906101000a900473ffffffffffffffffffffffffffffffffffffffff16846040518363ffffffff1660e01b8152600401610f8d9291906123f9565b602060405180830381600087803b158015610fa757600080fd5b505af1158015610fbb573d6000803e3d6000fd5b505050506040513d601f19601f82011682018060405250810190610fdf9190611e19565b508080600101915050610ef9565b50610ff66110a3565b50565b600081600a8110801561100d575060008110155b801561104d575060018081111561102057fe5b600482600a811061102d57fe5b0160000160009054906101000a900460ff16600181111561104a57fe5b14155b61105657600080fd5b600080600181111561106457fe5b600485600a811061107157fe5b0160000160009054906101000a900460ff16600181111561108e57fe5b141561109957600190505b8092505050919050565b6001600f60006101000a81548160ff021916908360058111156110c257fe5b021790555060006020819055506000601f8190555060005b600a811015611104576000602582600a81106110f257fe5b018190555080806001019150506110da565b5060005b600a811015611132576000602f82600a811061112057fe5b01819055508080600101915050611108565b5060005b600a811015611183576003600e82600a811061114e57fe5b602091828204019190066101000a81548160ff0219169083600581111561117157fe5b02179055508080600101915050611136565b50600b601e819055506003601c819055506007601d81905550565b6060600080601b85856040516111b5929190612349565b908152602001604051809103902060009054906101000a900460ff16905060005b600a811015611231578160058111156111eb57fe5b600482600a81106111f857fe5b0160000160019054906101000a900460ff16600581111561121557fe5b14156112245782806001019350505b80806001019150506111d6565b5060608267ffffffffffffffff8111801561124b57600080fd5b5060405190808252806020026020018201604052801561127a5781602001602082028036833780820191505090505b5090506000925060005b600a8110156112f85782600581111561129957fe5b600482600a81106112a657fe5b0160000160019054906101000a900460ff1660058111156112c357fe5b14156112eb57808285815181106112d657fe5b60200260200101818152505083806001019450505b8080600101915050611284565b5080935050505092915050565b600360009054906101000a900473ffffffffffffffffffffffffffffffffffffffff1681565b600160009054906101000a900473ffffffffffffffffffffffffffffffffffffffff1681565b60235481565b60245481565b6001600581111561136a57fe5b600f60009054906101000a900460ff16600581111561138557fe5b141561139057600080fd5b6000600581111561139d57fe5b600f60009054906101000a900460ff1660058111156113b857fe5b146113f8576040517f08c379a00000000000000000000000000000000000000000000000000000000081526004016113ef90612585565b60405180910390fd5b60225481101561143d576040517f08c379a0000000000000000000000000000000000000000000000000000000008152600401611434906124e5565b60405180910390fd5b80600260009054906101000a900473ffffffffffffffffffffffffffffffffffffffff1673ffffffffffffffffffffffffffffffffffffffff166370a08231336040518263ffffffff1660e01b815260040161149991906123a7565b60206040518083038186803b1580156114b157600080fd5b505afa1580156114c5573d6000803e3d6000fd5b505050506040513d601f19601f820116820180604052508101906114e99190611ef1565b101561152a576040517f08c379a000000000000000000000000000000000000000000000000000000000815260040161152190612505565b60405180910390fd5b806021600082825401925050819055506000601a60003373ffffffffffffffffffffffffffffffffffffffff1673ffffffffffffffffffffffffffffffffffffffff1681526020019081526020016000205490506004600581111561158b57fe5b600482600a811061159857fe5b0160000160019054906101000a900460ff1660058111156115b557fe5b14156115d057816023600082825401925050819055506115e1565b816024600082825401925050819055505b600260009054906101000a900473ffffffffffffffffffffffffffffffffffffffff1673ffffffffffffffffffffffffffffffffffffffff166323b872dd3330856040518463ffffffff1660e01b8152600401611640939291906123c2565b602060405180830381600087803b15801561165a57600080fd5b505af115801561166e573d6000803e3d6000fd5b505050506040513d601f19601f820116820180604052508101906116929190611e19565b505050565b6000601d54601c5401905090565b7fbb3a0b55fe833703be63394fa5e5ed2aa1fcb33046f0732c45505aebeaf5946260046040516116d59190612495565b60405180910390a160006003602154816116eb57fe5b04905060005b60038110156117e557600260009054906101000a900473ffffffffffffffffffffffffffffffffffffffff1673ffffffffffffffffffffffffffffffffffffffff1663a9059cbb601083600a811061174557fe5b0160009054906101000a900473ffffffffffffffffffffffffffffffffffffffff16846040518363ffffffff1660e01b81526004016117859291906123f9565b602060405180830381600087803b15801561179f57600080fd5b505af11580156117b3573d6000803e3d6000fd5b505050506040513d601f19601f820116820180604052508101906117d79190611e19565b5080806001019150506116f1565b506117ee6110a3565b50565b6000805b600a8110156118b7573373ffffffffffffffffffffffffffffffffffffffff16600482600a811061182257fe5b0160000160029054906101000a900473ffffffffffffffffffffffffffffffffffffffff1673ffffffffffffffffffffffffffffffffffffffff1614156118aa576000600181111561187057fe5b600482600a811061187d57fe5b0160000160009054906101000a900460ff16600181111561189a57fe5b14156118a557600191505b6118b7565b80806001019150506117f5565b50806118c257600080fd5b600260058111156118cf57fe5b600f60009054906101000a900460ff1660058111156118ea57fe5b146118f457600080fd5b60006118fe611697565b905080601f5410801561195e575060006025601a60003373ffffffffffffffffffffffffffffffffffffffff1673ffffffffffffffffffffffffffffffffffffffff16815260200190815260200160002054600a811061195a57fe5b0154145b801561199e57506000600181111561197257fe5b600484600a811061197f57fe5b0160000160009054906101000a900460ff16600181111561199c57fe5b145b15611a265760016025601a60003373ffffffffffffffffffffffffffffffffffffffff1673ffffffffffffffffffffffffffffffffffffffff16815260200190815260200160002054600a81106119f157fe5b01819055506001602f84600a8110611a0557fe5b0160008282540192505081905550601f600081548092919060010191905055505b80601f541415611bd65760008060005b600a811015611a775782602f82600a8110611a4d57fe5b01541115611a6a57602f81600a8110611a6257fe5b015492508091505b8080600101915050611a36565b5060046005811115611a8557fe5b600482600a8110611a9257fe5b0160000160019054906101000a900460ff166005811115611aaf57fe5b1415611acd57601c6000815480929190600190039190505550611ae1565b601d60008154809291906001900391905055505b6001600482600a8110611af057fe5b0160000160006101000a81548160ff02191690836001811115611b0f57fe5b02179055506000601f8190555060005b600a811015611b49576000602f82600a8110611b3757fe5b01819055508080600101915050611b1f565b5060005b600a811015611b77576000602582600a8110611b6557fe5b01819055508080600101915050611b4d565b506000600f60006101000a81548160ff02191690836005811115611b9757fe5b02179055507e4e4ecf5ad01a969ce2da16c5d7a7dfa7e56cfb368d486d400a8825f647fa306000604051611bcb919061247a565b60405180910390a150505b6000601d541415611bee57611be96116a5565b611c03565b6000601c541415611c0257611c01610ea9565b5b5b505050565b601a6020528060005260406000206000915090505481565b6000806000905060005b600a811015611c825760006001811115611c4057fe5b600482600a8110611c4d57fe5b0160000160009054906101000a900460ff166001811115611c6a57fe5b1415611c77576001820191505b600181019050611c2a565b508091505090565b601b818051602081018201805184825260208301602085012081835280955050505050506000915054906101000a900460ff1681565b600081359050611ccf816127e4565b92915050565b600081519050611ce4816127e4565b92915050565b600081519050611cf9816127fb565b92915050565b60008083601f840112611d1157600080fd5b8235905067ffffffffffffffff811115611d2a57600080fd5b602083019150836001820283011115611d4257600080fd5b9250929050565b600082601f830112611d5a57600080fd5b8135611d6d611d688261260d565b6125e0565b91508082526020830160208301858383011115611d8957600080fd5b611d94838284612784565b50505092915050565b600081359050611dac81612812565b92915050565b600081519050611dc181612812565b92915050565b600060208284031215611dd957600080fd5b6000611de784828501611cc0565b91505092915050565b600060208284031215611e0257600080fd5b6000611e1084828501611cd5565b91505092915050565b600060208284031215611e2b57600080fd5b6000611e3984828501611cea565b91505092915050565b60008060208385031215611e5557600080fd5b600083013567ffffffffffffffff811115611e6f57600080fd5b611e7b85828601611cff565b92509250509250929050565b600060208284031215611e9957600080fd5b600082013567ffffffffffffffff811115611eb357600080fd5b611ebf84828501611d49565b91505092915050565b600060208284031215611eda57600080fd5b6000611ee884828501611d9d565b91505092915050565b600060208284031215611f0357600080fd5b6000611f1184828501611db2565b91505092915050565b6000611f26838361232b565b60208301905092915050565b611f3b816126f4565b82525050565b611f4a81612699565b82525050565b6000611f5b82612649565b611f65818561266c565b9350611f7083612639565b8060005b83811015611fa1578151611f888882611f1a565b9750611f938361265f565b925050600181019050611f74565b5085935050505092915050565b611fb781612706565b82525050565b611fc68161272a565b82525050565b611fd58161274e565b82525050565b6000611fe7838561268e565b9350611ff4838584612784565b82840190509392505050565b600061200b82612654565b612015818561267d565b9350612025818560208601612793565b61202e816127c6565b840191505092915050565b600061204660138361267d565b91507f4c657373207468616e206d696e207374616b65000000000000000000000000006000830152602082019050919050565b600061208660088361268e565b91507f435245574d4154450000000000000000000000000000000000000000000000006000830152600882019050919050565b60006120c6600a8361267d565b91507f4e6f7420656e6f756768000000000000000000000000000000000000000000006000830152602082019050919050565b600061210660218361267d565b91507f4c6574277320416d6f6e6775732e66696e616e63652067616d6520626567696e60008301527f21000000000000000000000000000000000000000000000000000000000000006020830152604082019050919050565b600061216c60048361267d565b91507f3a57494e000000000000000000000000000000000000000000000000000000006000830152602082019050919050565b60006121ac60248361267d565b91507f596f7520617265206e6f74206f776e6572206f66207468697320415449434b4560008301527f54204944000000000000000000000000000000000000000000000000000000006020830152604082019050919050565b6000612212601a8361267d565b91507f54686572652061726520736f6d65206d6f726520706c616365730000000000006000830152602082019050919050565b600061225260088361268e565b91507f494d504f53544f520000000000000000000000000000000000000000000000006000830152600882019050919050565b6000612292601c8361267d565b91507f4265747320617265206e6f206c6f6e67657220616363657074656421000000006000830152602082019050919050565b60006122d2602d8361267d565b91507f54686572652061726520656e6f75676820706c617965727320696e207468697360008301527f2067616d6520616c7265616479000000000000000000000000000000000000006020830152604082019050919050565b612334816126ea565b82525050565b612343816126ea565b82525050565b6000612356828486611fdb565b91508190509392505050565b600061236d82612079565b9150819050919050565b600061238282612245565b9150819050919050565b60006020820190506123a16000830184611f41565b92915050565b60006020820190506123bc6000830184611f32565b92915050565b60006060820190506123d76000830186611f32565b6123e46020830185611f41565b6123f1604083018461233a565b949350505050565b600060408201905061240e6000830185611f41565b61241b602083018461233a565b9392505050565b6000602082019050818103600083015261243c8184611f50565b905092915050565b60006020820190506124596000830184611fae565b92915050565b60006020820190506124746000830184611fbd565b92915050565b600060208201905061248f6000830184611fcc565b92915050565b60006040820190506124aa6000830184611fcc565b81810360208301526124bb8161215f565b905092915050565b600060208201905081810360008301526124dd8184612000565b905092915050565b600060208201905081810360008301526124fe81612039565b9050919050565b6000602082019050818103600083015261251e816120b9565b9050919050565b6000602082019050818103600083015261253e816120f9565b9050919050565b6000602082019050818103600083015261255e8161219f565b9050919050565b6000602082019050818103600083015261257e81612205565b9050919050565b6000602082019050818103600083015261259e81612285565b9050919050565b600060208201905081810360008301526125be816122c5565b9050919050565b60006020820190506125da600083018461233a565b92915050565b6000604051905081810181811067ffffffffffffffff8211171561260357600080fd5b8060405250919050565b600067ffffffffffffffff82111561262457600080fd5b601f19601f8301169050602081019050919050565b6000819050602082019050919050565b600081519050919050565b600081519050919050565b6000602082019050919050565b600082825260208201905092915050565b600082825260208201905092915050565b600081905092915050565b60006126a4826126ca565b9050919050565b60008115159050919050565b60008190506126c5826127d7565b919050565b600073ffffffffffffffffffffffffffffffffffffffff82169050919050565b6000819050919050565b60006126ff82612760565b9050919050565b600061271182612718565b9050919050565b6000612723826126ca565b9050919050565b60006127358261273c565b9050919050565b6000612747826126ca565b9050919050565b6000612759826126b7565b9050919050565b600061276b82612772565b9050919050565b600061277d826126ca565b9050919050565b82818337600083830152505050565b60005b838110156127b1578082015181840152602081019050612796565b838111156127c0576000848401525b50505050565b6000601f19601f8301169050919050565b600681106127e157fe5b50565b6127ed81612699565b81146127f857600080fd5b50565b612804816126ab565b811461280f57600080fd5b50565b61281b816126ea565b811461282657600080fd5b5056fea26469706673582212201db65b842cc1fbe1a69629788b694493551f95012addb1f588833f31ef0a351d64736f6c634300060c0033",
  "immutableReferences": {},
  "source": "pragma solidity >=0.5.0 <0.7.0;\npragma experimental ABIEncoderV2;\n\nimport \"./AufToken.sol\";\nimport \"./AufNFT.sol\";\n\ncontract AufGame {\n    string public name = \"Amongus.finance game\";\n    address public owner;\n    AufToken public aufToken;\n    AufNFT public aufNFT;\n    uint private constant max_players = 10;\n\n    enum Roles { \n        ACTIVE,\n        INACTIVE,\n        VOTING,\n        UNKNOWN,\n\n        IMPOSTOR, \n        CREWMATE\n    } \n\n    enum States {\n        ALIVE,\n        GHOST\n    }\n\n    struct Player {\n        States state;\n        Roles role;\n        address adr;\n    }\n    \n    Player[max_players] private players;\n    Roles[max_players] private roles_;\n    Roles private current_stage = Roles.INACTIVE;\n\n    address[max_players] private Users;\n    mapping(address => uint) public player_index;\n    mapping(string => Roles) public lookup;\n\n    event Log(string _text);\n    event Winside(Roles a, string b);\n    event CurrentStage(Roles a);\n\n    uint private impostor_count = 3; \n    uint private crewmate_count = 7; \n    uint private hit = 11; \n    uint private voted = 0;\n    uint private index = 0;\n    uint private bank = 0;\n    uint private min_stake = 1000000000000000000000;\n    uint public impostor_bets = 0;\n    uint public citizen_bets = 0;\n    uint[max_players] private voted_already; \n    uint[max_players] private voted_for;\n    address burnaddr = 0x000000000000000000000000000000000000000d;\n\n    constructor(AufToken _aufToken, AufNFT _aufNFT) public {\n        aufToken = _aufToken;\n        aufNFT = _aufNFT;\n        owner = msg.sender;\n    }\n\n    modifier ActiveGame() {\n        require(current_stage != Roles.INACTIVE);\n        _;\n    }\n\n    modifier ActiveVote() {\n        require(current_stage == Roles.VOTING);\n        _;\n    }\n\n    modifier avaliable() {\n        require (\n            index < max_players,\n            \"There are enough players in this game already\"\n        );\n        _;\n    }\n\n    modifier full() {\n        require (\n            index == max_players,\n            \"There are some more places\"\n        );\n        _;\n    }\n\n    function ConnectGame(uint256 nftid) public avaliable() {\n        require(aufNFT.ownerOf(nftid) == msg.sender, \"You are not owner of this ATICKET ID\");\n        aufNFT.transferFrom(msg.sender, burnaddr, nftid);\n        Users[index] = msg.sender;\n        player_index[msg.sender] = index;\n        index++;       \n    }\n\n    function gameStart() public full() {       \n        emit Log(\"Let's Amongus.finance game begin!\");\n        for (uint i = 0; i < max_players; i += 1) {\n            players[i].state = States.ALIVE;\n            players[i].adr = Users[i];\n        }\n        players[0].role = Roles.IMPOSTOR;\n        players[1].role = Roles.IMPOSTOR;\n        players[2].role = Roles.IMPOSTOR;\n        players[3].role = Roles.CREWMATE;\n        players[4].role = Roles.CREWMATE;\n        players[5].role = Roles.CREWMATE;\n        players[6].role = Roles.CREWMATE;\n        players[7].role = Roles.CREWMATE;\n        players[8].role = Roles.CREWMATE;\n        players[9].role = Roles.CREWMATE;\n        lookup[\"IMPOSTOR\"] = Roles.IMPOSTOR;\n        lookup[\"CREWMATE\"] = Roles.CREWMATE;\n        current_stage = Roles.ACTIVE;\n        bank = 0;\n        impostor_bets = 0;\n        citizen_bets = 0;\n    }\n\n    function Bet(uint256 stake) public ActiveGame() {\n        require(current_stage == Roles.ACTIVE, \"Bets are no longer accepted!\");\n        require(stake >= min_stake, \"Less than min stake\"); \n        require(aufToken.balanceOf(msg.sender) >= stake, \"Not enough\");\n        bank += stake;\n        uint ind = player_index[msg.sender];\n        if (players[ind].role == Roles.IMPOSTOR) {\n            impostor_bets += stake;\n        } else {\n            citizen_bets += stake;\n        }\n        aufToken.transferFrom(msg.sender, address(this), stake);\n    }\n\n    modifier roleChecktoKill(Roles r) {\n        bool flag = false;\n        for (uint i = 0; i < max_players; i++) {\n            if (players[i].adr == msg.sender) {\n                if (players[i].role == r && players[i].state == States.ALIVE && current_stage == Roles.ACTIVE) {\n                    flag = true; \n                }\n                break;\n            }    \n        }\n        require (flag);\n        _;\n    }\n\n    modifier playerCheck() {\n        bool plflag = false;\n        for (uint i = 0; i < max_players; i++) {\n            if (players[i].adr == msg.sender) {\n                if (players[i].state == States.ALIVE) {\n                    plflag = true; \n                }\n                break;\n            }    \n        }\n        require (plflag);\n        _;\n    }\n\n    modifier impostor_settled(uint ind) {\n        require(ind < max_players && ind >= 3 && players[ind].state == States.ALIVE);\n        _;\n    }\n\n    function ImpostorKill(uint ind) public roleChecktoKill(Roles.IMPOSTOR) ActiveGame() impostor_settled(ind) {\n            hit = ind;\n            players[hit].state = States.GHOST;\n            crewmate_count--;\n            if (crewmate_count == 0) { \n                ImpostorWin();\n        }\n    }\n\n    function startVoting() public playerCheck() ActiveGame() {\n        current_stage = Roles.VOTING;\n        emit CurrentStage(Roles.VOTING);\n    }\n\n    function voteCount() public view returns (uint) {\n        return (impostor_count + crewmate_count);\n    } \n\n    function Vote(uint ind) public playerCheck() ActiveVote() {\n        uint vote_count = voteCount();\n        if (voted < vote_count && voted_already[player_index[msg.sender]] == 0 && players[ind].state == States.ALIVE) {\n            voted_already[player_index[msg.sender]] = 1;\n            voted_for[ind] += 1;\n            voted++;\n\n        } \n        if (voted == vote_count) {\n            uint max = 0;\n            uint i_max = 0;\n            for (uint i = 0; i < max_players; i++) {\n                if (voted_for[i] > max) {\n                    max = voted_for[i];\n                    i_max = i;\n                }\n            }\n            if (players[i_max].role == Roles.IMPOSTOR) impostor_count--;\n            else crewmate_count--;\n            players[i_max].state = States.GHOST;\n            \n            voted = 0;\n\n            for (uint i = 0; i < max_players; i++) {\n                voted_for[i] = 0;\n            }\n            for (uint i = 0; i < max_players; i++) {\n                voted_already[i] = 0;\n            }\n            current_stage = Roles.ACTIVE;\n            emit CurrentStage(Roles.ACTIVE);\n        }\n        if (crewmate_count == 0) {\n            ImpostorWin();\n        }\n        else if (impostor_count == 0) {\n            CrewmateWin();\n        } \n    }\n    \n    function ImpostorWin() public {\n       emit Winside(Roles.IMPOSTOR, \":WIN\");\n       uint256 count = bank / 3;\n       for (uint i = 0; i < 3; i++) {\n           aufToken.transfer(Users[i], count);\n       }\n       Reset();\n       return;\n    }\n\n    function CrewmateWin() public {\n        emit Winside(Roles.CREWMATE, \":WIN\");\n        uint256 count = bank / 7;\n        for (uint i = 3; i < max_players; i++) {\n           aufToken.transfer(Users[i], count);\n        }\n        Reset();\n        return;\n    }\n\n    function CheckAlive() public view returns(uint) {\n        uint count = 0;\n        for (uint i = 0; i < max_players; i += 1){\n            if(players[i].state == States.ALIVE) count += 1;\n        }\n        return(count);\n    }\n\n    function CheckAlive(uint ind) public view correct_range(ind) returns(uint) {\n        uint count = 0;\n        if (players[ind].state == States.ALIVE) count = 1;\n        return(count);\n    }\n\n    function RoleLookup(string calldata s) external view returns (uint[] memory) {\n        uint k = 0;\n        Roles rr = lookup[s];\n\n        for (uint i = 0; i < max_players; i++) {\n            if (players[i].role == rr) k++;\n        }\n\n        uint[] memory lookup_arr = new uint[](k);\n        k = 0;\n\n        for (uint i = 0; i < max_players; i++) {\n            if (players[i].role == rr) {\n                lookup_arr[k] = i;\n                k++;\n            }\n        }\n        return lookup_arr;\n    }\n\n    function Reset() public {\n        current_stage = Roles.INACTIVE;\n        index = 0;\n        voted = 0;\n        for (uint i = 0; i < max_players; i++) {\n            voted_already[i] = 0;\n        }\n        for (uint i = 0; i < max_players; i++) {\n            voted_for[i] = 0;\n        }\n        for (uint i = 0; i < max_players; i++) {\n            roles_[i] = Roles.UNKNOWN;\n        }\n        hit = 11;\n        impostor_count = 3;\n        crewmate_count = 7;\n    }\n\n    modifier correct_range(uint ind) {\n        require(ind < max_players && ind >= 0 && players[ind].state != States.GHOST);\n        _;\n    }\n}",
  "sourcePath": "/Users/dev/work/code/amongus/src/contracts/AufGame.sol",
  "compiler": {
    "name": "solc",
    "version": "0.6.12+commit.27d51765.Emscripten.clang"
  },
  "schemaVersion": "3.3.4",
  "updatedAt": "2021-06-27T17:14:38.589Z",
  "networkType": "ethereum",
  "devdoc": {
    "kind": "dev",
    "methods": {},
    "version": 1
  },
  "userdoc": {
    "kind": "user",
    "methods": {},
    "version": 1
  }
}