{
  "contractName": "Ownable",
  "abi": [
    {
      "inputs": [],
      "stateMutability": "nonpayable",
      "type": "constructor"
    },
    {
      "anonymous": false,
      "inputs": [
        {
          "indexed": true,
          "internalType": "address",
          "name": "previousOwner",
          "type": "address"
        },
        {
          "indexed": true,
          "internalType": "address",
          "name": "newOwner",
          "type": "address"
        }
      ],
      "name": "OwnershipTransferred",
      "type": "event"
    },
    {
      "inputs": [],
      "name": "owner",
      "outputs": [
        {
          "internalType": "address",
          "name": "",
          "type": "address"
        }
      ],
      "stateMutability": "view",
      "type": "function"
    },
    {
      "inputs": [],
      "name": "isOwner",
      "outputs": [
        {
          "internalType": "bool",
          "name": "",
          "type": "bool"
        }
      ],
      "stateMutability": "view",
      "type": "function"
    },
    {
      "inputs": [
        {
          "internalType": "address",
          "name": "_newOwner",
          "type": "address"
        }
      ],
      "name": "transferOwnership",
      "outputs": [],
      "stateMutability": "nonpayable",
      "type": "function"
    }
  ],
  "bytecode": "0x608060405234801561001057600080fd5b50336000806101000a81548173ffffffffffffffffffffffffffffffffffffffff021916908373ffffffffffffffffffffffffffffffffffffffff16021790555060008054906101000a900473ffffffffffffffffffffffffffffffffffffffff1673ffffffffffffffffffffffffffffffffffffffff16600073ffffffffffffffffffffffffffffffffffffffff167f8be0079c531659141344cd1fd0a4f28419497f9722a3daafe3b4186f6b6457e060405160405180910390a3610383806100db6000396000f3fe608060405234801561001057600080fd5b50600436106100415760003560e01c80638da5cb5b146100465780638f32d59b1461007a578063f2fde38b1461009a575b600080fd5b61004e6100de565b604051808273ffffffffffffffffffffffffffffffffffffffff16815260200191505060405180910390f35b610082610107565b60405180821515815260200191505060405180910390f35b6100dc600480360360208110156100b057600080fd5b81019080803573ffffffffffffffffffffffffffffffffffffffff16906020019092919050505061015e565b005b60008060009054906101000a900473ffffffffffffffffffffffffffffffffffffffff16905090565b60008060009054906101000a900473ffffffffffffffffffffffffffffffffffffffff1673ffffffffffffffffffffffffffffffffffffffff163373ffffffffffffffffffffffffffffffffffffffff1614905090565b610166610107565b6101d8576040517f08c379a00000000000000000000000000000000000000000000000000000000081526004018080602001828103825260208152602001807f4f776e61626c653a2063616c6c6572206973206e6f7420746865206f776e657281525060200191505060405180910390fd5b6101e1816101e4565b50565b600073ffffffffffffffffffffffffffffffffffffffff168173ffffffffffffffffffffffffffffffffffffffff16141561026a576040517f08c379a00000000000000000000000000000000000000000000000000000000081526004018080602001828103825260268152602001806103286026913960400191505060405180910390fd5b8073ffffffffffffffffffffffffffffffffffffffff1660008054906101000a900473ffffffffffffffffffffffffffffffffffffffff1673ffffffffffffffffffffffffffffffffffffffff167f8be0079c531659141344cd1fd0a4f28419497f9722a3daafe3b4186f6b6457e060405160405180910390a3806000806101000a81548173ffffffffffffffffffffffffffffffffffffffff021916908373ffffffffffffffffffffffffffffffffffffffff1602179055505056fe4f776e61626c653a206e6577206f776e657220697320746865207a65726f2061646472657373a2646970667358221220c0ff64e6994f29dc862f6c65b3396a524ff14a115a6526a4ada43dd00b65d00164736f6c634300060c0033",
  "immutableReferences": {},
  "source": "// SPDX-License-Identifier: UNLICENSED\n\npragma solidity >=0.5.0 <0.7.0;\n\ncontract Ownable {\n    \n    address private _owner;\n\n    event OwnershipTransferred(address indexed previousOwner, address indexed newOwner);\n\n    constructor () public {\n        _owner = msg.sender;\n        emit OwnershipTransferred(address(0), _owner);\n    }\n\n    function owner() public view returns (address) {\n        return _owner;\n    }\n\n    modifier onlyOwner() {\n        require(isOwner(), \"Ownable: caller is not the owner\");\n        _;\n    }\n\n    function isOwner() public view returns (bool) {\n        return msg.sender == _owner;\n    }\n\n    function transferOwnership(address _newOwner) public onlyOwner {\n        _transferOwnership(_newOwner);\n    }\n\n    function _transferOwnership(address _newOwner) internal {\n        require(_newOwner != address(0), \"Ownable: new owner is the zero address\");\n        emit OwnershipTransferred(_owner, _newOwner);\n        _owner = _newOwner;\n    }\n}\n\n\nlibrary SafeMath {\n    function safeAdd(uint a, uint b) internal pure returns (uint c) {\n        c = a + b;\n        require(c >= a);\n    }\n    function safeSub(uint a, uint b) internal pure returns (uint c) {\n        require(b <= a);\n        c = a - b;\n    }\n    function safeMul(uint a, uint b) internal pure returns (uint c) {\n        c = a * b;\n        require(a == 0 || c / a == b);\n    }\n    function safeDiv(uint a, uint b) internal pure returns (uint c) {\n        require(b > 0);\n        c = a / b;\n    }\n}\n\n\ninterface ERC20{\n    \n    function totalSupply() external view returns (uint256);\n    function balanceOf(address _tokenOwner) external view returns (uint256);\n    function allowance(address _tokenOwner, address _spender) external view returns (uint256);\n    function transfer(address _to, uint256 _tokens) external returns (bool);\n    function approve(address _spender, uint256 _tokens)  external returns (bool);\n    function transferFrom(address _from, address _to, uint256 _tokens) external returns (bool);\n    \n    event Approval(address indexed tokenOwner, address indexed spender, uint tokens);\n    event Transfer(address indexed from, address indexed to, uint tokens);\n    \n}\n\n\n\n\ncontract AufToken is Ownable, ERC20{\n    \n    using SafeMath for uint256;\n\n    string _name;\n    string  _symbol;\n    uint256 _totalSupply;\n    uint256 _decimal;\n    \n    mapping(address => uint256) _balances;\n    mapping(address => mapping (address => uint256)) _allowances;\n    \n    event Approval(address indexed tokenOwner, address indexed spender, uint tokens);\n    event Transfer(address indexed from, address indexed to, uint tokens);\n    \n    constructor() public {\n        _name = \"Amongus.finance\";\n        _symbol = \"AMONG\";\n        _decimal = 18;\n        _totalSupply = 21000000 * 10 ** _decimal;\n        _balances[0xf2596513BccbCbF318d5A18AF9A8A24EA589D0C7] = _totalSupply;\n        emit Transfer(address(0), 0xf2596513BccbCbF318d5A18AF9A8A24EA589D0C7, _totalSupply);\n    }\n    \n    \n    function name() public view returns (string memory) {\n        return _name;\n    }\n    \n    function symbol() public view returns (string memory) {\n        return _symbol;\n    }\n    \n    function decimals() public view returns (uint256) {\n        return _decimal;\n    }\n    \n    function totalSupply() external view  override returns (uint256) {\n        return _totalSupply;\n    }\n    \n    function balanceOf(address _tokenOwner) external view override returns (uint256) {\n        return _balances[_tokenOwner];\n    }\n    \n    function transfer(address _to, uint256 _tokens) external override returns (bool) {\n        _transfer(msg.sender, _to, _tokens);\n        return true;\n    }\n    \n    function _transfer(address _sender, address _recipient, uint256 _amount) internal {\n        require(_sender != address(0), \"ERC20: transfer from the zero address\");\n        require(_recipient != address(0), \"ERC20: transfer to the zero address\");\n\n        _balances[_sender] = _balances[_sender].safeSub(_amount);\n        _balances[_recipient] = _balances[_recipient].safeAdd(_amount);\n        emit Transfer(_sender, _recipient, _amount);\n    }\n    \n    function allowance(address _tokenOwner, address _spender) external view override returns (uint256) {\n        return _allowances[_tokenOwner][_spender];\n    }\n    \n    function approve(address _spender, uint256 _tokens) external override returns (bool) {\n        _approve(msg.sender, _spender, _tokens);\n        return true;\n    }\n    \n    function _approve(address _owner, address _spender, uint256 _value) internal {\n        require(_owner != address(0), \"ERC20: approve from the zero address\");\n        require(_spender != address(0), \"ERC20: approve to the zero address\");\n\n        _allowances[_owner][_spender] = _value;\n        emit Approval(_owner, _spender, _value);\n    }\n    \n    \n    function transferFrom(address _from, address _to, uint256 _tokens) external override returns (bool) {\n        _transfer(_from, _to, _tokens);\n        _approve(_from, msg.sender, _allowances[_from][msg.sender].safeSub(_tokens));\n        return true;\n    }\n    receive () external payable {\n        revert();\n    }\n\n}",
  "sourcePath": "/Users/dev/work/code/amongus/src/contracts/AufToken.sol",
  "compiler": {
    "name": "solc",
    "version": "0.6.12+commit.27d51765.Emscripten.clang"
  },
  "schemaVersion": "3.3.4",
  "updatedAt": "2021-06-25T17:01:03.552Z",
  "devdoc": {
    "kind": "dev",
    "methods": {},
    "version": 1
  },
  "userdoc": {
    "kind": "user",
    "methods": {},
    "version": 1
  }
}